:020000020000FC
:1000000000E0202E00E0302E00E0402E00E0502ED8
:100010003F065B4F666D7D077F6F4FE741BB4EE14B
:1000200047BB42E050E090E085E0B0E0A5E01B2E49
:100030000A2E112D002D42D0502E412E322E232E6D
:100040006BD042E048BBC199052DC299042DC399DC
:10005000032DC499022D76D002BB5ED044E048BB8C
:10006000C199052DC299042DC399032DC499022D60
:1000700069D002BB51D048E048BBC199052DC29957
:10008000042DC399032DC499022D5CD002BB44D02A
:1000900040E148BBC199052DC299042DC399032D98
:1000A000C499022D4FD002BBB12DA02D1196B330B3
:1000B00020F0A83E10F0BB27AA27B9CF6F937F93FB
:1000C0008F939F9333E028EE13D0622F30E024E625
:1000D0000FD0722F30E02AE00BD0822F902F062F06
:1000E000172F282F392F9F918F917F916F9108950E
:1000F0008F939F9388279927131738F011F40217CD
:1001000020F0021B130B0196F7CF282F392F002F59
:10011000112F9F918F9108959F938F9305D00197F1
:10012000E9F78F919F9108959F938F9396E08BE3CA
:1001300001970000E8F78F919F91000000000000F8
:1001400000000895EF93FF93E0E1F0E03196015055
:0C015000E8F731970491FF91EF910895BA
:00000001FF
