:020000020000FC
:020000002FC00F
:0200080015C021
:1000160000C08F939F938FB78F93802D912D01965C
:10002600082E192E8F918FBF9F918F9118950F9340
:100036001F932F933F930FB70F93002D112D3FD092
:10004600202E312E422E532E002411240F910FBF45
:100056003F912F911F910F91189500E20BBF01E080
:1000660000BD0CE00EBD0DE30BBD09E00ABD00E4CA
:1000760009BF0EE107BB0FE701BB789405E010E06E
:100086005BD002E008BB022D4CD002BB05E010E0BD
:1000960053D004E008BB032D44D002BB05E010E0BA
:1000A6004BD008E008BB042D3CD002BB05E010E0B5
:1000B60043D000E108BB052D34D002BBDFCF6F93E0
:1000C6007F938F939F9328EE33E013D0922F24E6ED
:1000D60030E00FD0822F2AE030E00BD0722F602F55
:1000E600062F172F282F392F9F918F917F916F9170
:1000F60008958F939F9388279927311710F0021739
:1001060020F0021B130B0196F8CF392F282F112F41
:10011600002F9F918F9108953F065B4F666D7D0777
:10012600FF6FEF93FF93EEE1F1E0E00F00E0F01FC9
:100136000491FF91EF9108958F939F93802F912FB4
:1001460005D00197E9F79F918F9108958F939F931B
:0E01560080ED97E00197F1F79F918F9108954A
:00000001FF
