:020000020000FC
:1000000007E0202E03E0302E01E0402E02E0502ECB
:100010003F065B4F666D7D077F6F4FE741BB4EE14B
:1000200047BB42E050E090E08AEF39D042E048BB65
:10003000C199052DC299042DC399032DC499022D90
:1000400044D002BB2CD044E048BBC199052DC299D5
:10005000042DC399032DC499022D37D002BB1FD0A4
:1000600048E048BBC199052DC299042DC399032DC1
:10007000C499022D2AD002BB12D040E148BBC199DD
:10008000052DC299042DC399032DC499022D1DD0AD
:1000900002BB0AE02394021541F62224C6CF9F93A7
:1000A0008F9305D00197E9F78F919F9108959F93C2
:1000B0008F9396E08BE301970000E8F78F919F9173
:1000C00000000000000000000895EF93FF93E0E1BE
:1000D000F0E031960150E8F731970491FF91EF91EC
:0200E000089581
:00000001FF
