:020000020000FC
:0200000038C006
:020008001BC01B
:1000160000C0AF93BF93BFB7BF93B12DA02D11966C
:10002600B73220F0A03110F0BB27AA271B2E0A2ECC
:10003600BF91BFBFBF91AF9118950F931F932F9399
:100046003F933FB73F93112D002D68D0502E412E80
:10005600322E232E3F913FBF3F912F911F910F913B
:1000660018953F065B4F666D7D077F6F00E20BBFFD
:1000760001E000BD0CE00EBD0AE70BBD02E10ABDC2
:1000860000E409BF78944FE741BB4EE147BB42E02D
:1000960050E0B0E0A5E090E085E06ED038B3317076
:1000A60042E0432B48BBC199052DC299042DC39943
:1000B600032DC499022D76D002BB5ED038B33170C1
:1000C60044E0432B48BBC199052DC299042DC39921
:1000D600032DC499022D66D002BB4ED038B33170C1
:1000E60048E0432B48BBC199052DC299042DC399FD
:1000F600032DC499022D56D002BB3ED038B33170C1
:1001060040E1432B48BBC199052DC299042DC399E3
:10011600032DC499022D46D002BBBFCF6F937F93A8
:100126008F939F9333E028EE13D0622F30E024E6BE
:100136000FD0722F30E02AE00BD0822F902F062F9F
:10014600172F282F392F9F918F917F916F910895A7
:100156008F939F9388279927131738F011F4021766
:1001660020F0021B130B0196F7CF282F392F002FF3
:10017600112F9F918F9108959F938F9305D001978B
:10018600E9F78F919F9108959F938F9396E08BE364
:1001960001970000E8F78F919F9100000000000092
:1001A60000000895EF93FF93E8E6F0E031960150E2
:0C01B600E8F731970491FF91EF91089554
:00000001FF
