:020000020000FC
:1000000007E0202E03E0302E01E0402E02E0502ECB
:100010003F065B4F666D7D077F6F4FE741BB4EE14B
:1000200047BB42E050E090E085E033D042E048BB7F
:10003000C199052DC299042DC399032DC499022D90
:100040003ED002BB26D044E048BBC199052DC299E1
:10005000042DC399032DC499022D31D002BB19D0B0
:1000600048E048BBC199052DC299042DC399032DC1
:10007000C499022D24D002BB0CD040E148BBC199E9
:10008000052DC299042DC399032DC499022D17D0B3
:1000900002BB9F938F9305D00197E9F78F919F91B2
:1000A00008959F938F9396E08BE301970000E8F704
:1000B0008F919F9100000000000000000895EF93D1
:1000C000FF93E0E1F0E031960150E8F731970491B9
:0600D000FF91EF9108957D
:00000001FF
