:020000020000FC
:0200000023C01B
:1000080000C0BF93AF930F931F932F933F93B12DCE
:10001800A02D1196B33020F0A83E10F0BB27AA27D8
:100028001B2E0A2E112D002D60D0502E412E322E5F
:10003800232E3F912F911F910F91AF91BF9118954A
:100048000CE00EBD0AE70BBD02E10ABD00E409BFE2
:10005800789400E0202E00E0302E00E0402E00E0F2
:10006800502E3F065B4F666D7D077F6F4FE741BBA4
:100078004EE147BB42E050E090E085E0B0E0A5E00B
:1000880062D042E048BBC199052DC299042DC3999D
:10009800032DC499022D6DD002BB55D044E048BB56
:1000A800C199052DC299042DC399032DC499022D18
:1000B80060D002BB48D048E048BBC199052DC29921
:1000C800042DC399032DC499022D53D002BB3BD0F4
:1000D80040E148BBC199052DC299042DC399032D50
:1000E800C499022D46D002BBCBCF6F937F938F93D9
:1000F8009F9333E028EE13D0622F30E024E60FD030
:10010800722F30E02AE00BD0822F902F062F172F66
:10011800282F392F9F918F917F916F9108958F93F9
:100128009F9388279927131738F011F4021720F0A6
:10013800021B130B0196F7CF282F392F002F112FF1
:100148009F918F9108959F938F9305D00197E9F719
:100158008F919F9108959F938F9396E08BE30197DA
:100168000000E8F78F919F91000000000000000058
:100178000895EF93FF93EAE6F0E031960150E8F72F
:0A01880031970491FF91EF91089563
:00000001FF
