:020000020000FC
:0200000030C00E
:0200080011C025
:1000160000C0BF93BFB7BF93039409F41394BF9175
:10002600BFBFBF9118950F931F932F933F933FB771
:100036003F93112D002D6AD0502E412E322E232EA5
:10004600112400243F913FBF3F912F911F910F91A3
:1000560018953F065B4F666D7D077F6F00E20BBF0D
:1000660001E000BD0CE00EBD0DE30BBD09E00ABDCD
:1000760000E409BF78944FE741BB4EE147BB42E03D
:1000860050E0B0E0A5E090E083E06ED038B3317088
:1000960042E0432B48BBC199052DC299042DC39953
:1000A600032DC499022D76D002BB5ED038B33170D1
:1000B60044E0432B48BBC199052DC299042DC39931
:1000C600032DC499022D66D002BB4ED038B33170D1
:1000D60048E0432B48BBC199052DC299042DC3990D
:1000E600032DC499022D56D002BB3ED038B33170D1
:1000F60040E1432B48BBC199052DC299042DC399F4
:10010600032DC499022D46D002BBBFCF6F937F93B8
:100116008F939F9333E028EE13D0622F30E024E6CE
:100126000FD0722F30E02AE00BD0822F902F062FAF
:10013600172F282F392F9F918F917F916F910895B7
:100146008F939F9388279927131738F011F4021776
:1001560020F0021B130B0196F7CF282F392F002F03
:10016600112F9F918F9108959F938F9305D001979B
:10017600E9F78F919F9108959F938F9396E08BE374
:1001860001970000E8F78F919F91000000000000A2
:1001960000000895EF93FF93E8E5F0E031960150F3
:0C01A600E8F731970491FF91EF91089564
:00000001FF
