:020000020000FC
:1000000007E0202E03E0302E01E0402E08E0502EC5
:100010003F065B4F666D7D077F6F4FE741BB4EE14B
:1000200047BB42E050E090E083E045D042E048BB6F
:10003000C199052DC299042DC399032DC499022D90
:1000400050D002BB38D044E048BBC199052DC299BD
:10005000042DC399032DC499022D43D002BB2BD08C
:1000600048E048BBC199052DC299042DC399032DC1
:10007000C499022D36D002BB1ED040E148BBC199C5
:10008000052DC299042DC399032DC499022D29D0A1
:1000900002BB0AE02394021541F62224339403158F
:1000A00021F633244394041501F644245394051592
:1000B00009F45524BACF9F938F9305D00197E9F7A0
:1000C0008F919F9108959F938F9396E08BE3019773
:1000D0000000E8F78F919F910000000000000000F1
:1000E0000895EF93FF93E0E1F0E031960150E8F7D7
:0A00F00031970491FF91EF910895FC
:00000001FF
